:020000040000FA
:102000007EEF3FF00000FFFFFFFFFFFFFFFFFFFF3E
:10201000FFFFFFFFFFFFFFFFFFFFFFFFFFFFFFFFD0
:10202000FFFFFFFFFFFFFFFFFFFFFFFFFFFFFFFFC0
:10203000FFFFFFFFFFFFFFFFFFFFFFFFFFFFFFFFB0
:107E0000FFFF08C005F009C006F0120008C003F02B
:107E100009C004F0120008C001F009C002F012000D
:107E200022EC3FF064EC3FF04AEC3FF0120000EE31
:107E300001F0070EEE6AE806FDE1000EF86E0001A3
:107E400031EF3FF0700ED36E100ED26E800E9B6E2F
:107E5000B56AD2AE2EEF3FF030EF3FF029EF3FF0A2
:107E6000120010EC3FF00D0E076E3D0E0B6EE10E92
:107E70000A6E400EE82EFED70A2EFCD70B2EFAD73C
:107E800007C08AFFD89007340734076E35EF3FF0FC
:107E90007EEF3FF0D09EF292F18C000E086E000E45
:107EA000096E01EC3FF0F090F18A000E086E000EB2
:107EB000096E06EC3FF0F092F188000E086E000E9D
:107EC000096E0BEC3FF01200896A8A6A8B6A8C6A31
:107ED0008D6A9268936AF70E946E9568870E966E17
:107EE0002F0E0F015B6F5C6BC40E5D6F5E69070E3A
:107EF0005F6F856A866A876AF286120017EF3FF025
:020000040030CA
:0400000000285F3C39
:020000040020DA
:080000000E0E080800000000CC
:00000001FF
