:020000040000FA
:102000007EEF3FF00000FFFFFFFFFFFFFFFFFFFF3E
:10201000FFFFFFFFFFFFFFFFFFFFFFFFFFFFFFFFD0
:10202000FFFFFFFFFFFFFFFFFFFFFFFFFFFFFFFFC0
:10203000FFFFFFFFFFFFFFFFFFFFFFFFFFFFFFFFB0
:107DC000FFFFFFFFFFFFFFFFFFFFFFFFFFFFFFFFC3
:107DD000FFFFFFFFFFFFFFFFFFFFFFFFFFFFFFFFB3
:107DE000FFFFFFFFFFFFFFFFFFFFFFFFFFFFFFFFA3
:107DF00007C005F008C006F0120007C003F008C075
:107E000004F0120007C001F008C002F0120019ECE3
:107E10003FF041EC3FF027EC3FF01200066A056AA4
:107E2000046A036A026A016A000EF86E00015BEFE1
:107E30003FF0700ED36E100ED26E9B6AB56AD2AE52
:107E400024EF3FF026EF3FF01FEF3FF01200D09EEF
:107E5000F292F18C000E076E000E086EF8EC3EF008
:107E6000F090F18A000E076E000E086EFDEC3EF0F9
:107E7000F092F188000E076E000E086E02EC3FF0E3
:107E80001200896A8A6A8B6A8C6A8D6A9268936A20
:107E9000F70E946E9568870E966E2F0E0F015B6F2E
:107EA0005C6BC40E5D6F5E69070E5F6F856A866AE4
:107EB000876AF286120007EC3FF00F015C6B936A51
:107EC0008A6A0B6A0B507F0B8A6E050E0A6E0F0EC4
:107ED000096EF10EE82EFED7092EFCD70A2EFAD72E
:107EE00000000B2A7F0E0B6478EF3FF07AEF3FF033
:107EF00062EF3FF061EF3FF07EEF3FF00EEF3FF0BB
:020000040030CA
:0400000000285F3C39
:020000040020DA
:080000000E02090800000000D7
:00000001FF
