:020000040000FA
:102000007EEF3FF00000FFFFFFFFFFFFFFFFFFFF3E
:10201000FFFFFFFFFFFFFFFFFFFFFFFFFFFFFFFFD0
:10202000FFFFFFFFFFFFFFFFFFFFFFFFFFFFFFFFC0
:10203000FFFFFFFFFFFFFFFFFFFFFFFFFFFFFFFFB0
:107D0000700ED36E936A0F0EC16E816A956A836A94
:107D1000120000EE01F0080EEE6AE806FDE1000E2A
:107D2000F86E0001FFEF3EF00B6A070E0B649BEF4D
:107D30003EF09DEF3EF09FEF3EF0BBEF3EF00BC0FC
:107D400009F0010E0A6E092AA8EF3EF0D8900A3613
:107D5000092EA6EF3EF00A50816E0B0E0A6E260E1B
:107D6000096E5E0EE82EFED7092EFCD70A2EFAD732
:107D70000B2A95EF3EF0816A060E0A6E130E096E0D
:107D8000AE0EE82EFED7092EFCD70A2EFAD7120027
:107D9000010E086E0B6A08C081FFD89008360B0EE2
:107DA0000A6E260E096E5E0EE82EFED7092EFCD74F
:107DB0000A2EFAD70B2A070E0B64E1EF3EF0E3EF31
:107DC0003EF0CBEF3EF0800E086E0C6A08C081FFDB
:107DD000D89008320B0E0A6E260E096E5E0EE82E43
:107DE000FED7092EFCD70A2EFAD70C2A070E0C64F0
:107DF000FCEF3EF0FEEF3EF0E6EF3EF0120080ECCE
:107E00003EF00F6A8168020E0E6E040E0D6EBA0E01
:107E1000E82EFED70D2EFCD70E2EFAD700D0816AA1
:107E2000020E0E6E040E0D6EBA0EE82EFED70D2E4B
:107E3000FCD70E2EFAD700D00F2A050E0F6423EFC1
:107E40003FF025EF3FF002EF3FF00B0E0E6E260ED7
:107E50000D6E5E0EE82EFED70D2EFCD70E2EFAD735
:107E600094EC3EF0060E0E6E130E0D6EAE0EE82E66
:107E7000FED70D2EFCD70E2EFAD7C8EC3EF0060E1C
:107E80000E6E130E0D6EAE0EE82EFED70D2EFCD725
:107E90000E2EFAD7106A8168030E0E6E080E0D6E54
:107EA000770EE82EFED70D2EFCD70E2EFAD7000047
:107EB000816A030E0E6E080E0D6E770EE82EFED749
:107EC0000D2EFCD70E2EFAD70000102A020E1064D9
:107ED0006CEF3FF06EEF3FF04BEF3FF0150E0E6E84
:107EE0004B0E0D6EBE0EE82EFED70D2EFCD70E2EBD
:107EF000FAD700D030EF3FF07EEF3FF089EF3EF051
:020000040030CA
:0400000000285F3C39
:020000040020DA
:08000000050D090100000000DC
:00000001FF
