:020000040000FA
:102000007EEF3FF00000FFFFFFFFFFFFFFFFFFFF3E
:10201000FFFFFFFFFFFFFFFFFFFFFFFFFFFFFFFFD0
:10202000FFFFFFFFFFFFFFFFFFFFFFFFFFFFFFFFC0
:10203000FFFFFFFFFFFFFFFFFFFFFFFFFFFFFFFFB0
:107DC000FFFFFFFFFFFFFFFFFFFFFFFFFFFFFFFFC3
:107DD000FFFFFFFFFFFFFFFFFFFFFFFFFFFFFFFFB3
:107DE000FFFFFFFFFFFFFFFFFFFFFFFFFFFF07C0DA
:107DF00005F008C006F0120007C003F008C004F048
:107E0000120007C001F008C002F0120018EC3FF0A9
:107E100040EC3FF026EC3FF01200066A056A046A67
:107E2000036A026A016A000EF86E00015AEF3FF021
:107E3000700ED36E100ED26E9B6AB56AD2AE23EF6F
:107E40003FF025EF3FF01EEF3FF01200D09EF29280
:107E5000F18C000E076E000E086EF7EC3EF0F0900D
:107E6000F18A000E076E000E086EFCEC3EF0F092F8
:107E7000F188000E076E000E086E01EC3FF0120054
:107E8000896A8A6A8B6A8C6A8D6A9268936AF70E2D
:107E9000946E9568870E966E2F0E0F015B6F5C6B6C
:107EA000C40E5D6F5E69070E5F6F856A866A876ABA
:107EB000F286120006EC3FF00F015C6B936A8A6A4F
:107EC0008A68150E0A6E4B0E096EBE0EE82EFED79E
:107ED000092EFCD70A2EFAD700D08A6A150E0A6E30
:107EE0004B0E096EBE0EE82EFED7092EFCD70A2EC9
:107EF000FAD700D060EF3FF07EEF3FF00DEF3FF09C
:020000040030CA
:0400000000285F3C39
:020000040020DA
:080000000E02030000000000E5
:00000001FF
