:04000000FEEF3FF0E0
:10080000000046504824346E47504920356E44500D
:100810003424366E45503520376E375007E1320E9E
:10082000365CD8B016EF04F018EF04F01BEF04F0BC
:10083000080E24EF07F0495009E1650E485CD8A086
:1008400024EF04F026EF04F0B3EF04F0475009E181
:10085000650E465CD8A02FEF04F031EF04F0B3EF43
:1008600004F0455009E1650E445CD8A03AEF04F06D
:100870003CEF04F0B3EF04F04850465C4950475851
:10088000D8B045EF04F047EF04F04FEF04F04650C6
:10089000485C3A6E475049583B6E55EF04F048505B
:1008A000465C3A6E495047583B6E4850445C49504C
:1008B0004558D8B05EEF04F060EF04F068EF04F044
:1008C0004450485C3C6E455049583D6E6EEF04F014
:1008D0004850445C3C6E495045583D6E3C503A5C33
:1008E0003D503B58D8B077EF04F079EF04F07DEF3E
:1008F00004F03CC03AF03DC03BF04650445C4750E9
:100900004558D8B086EF04F088EF04F090EF04F07B
:100910004450465C3C6E455047583D6E96EF04F09F
:100920004650445C3C6E475045583D6E3C503A5CE6
:100930003D503B58D8B09FEF04F0A1EF04F0A5EF75
:1009400004F03CC03AF03DC03BF03B5007E11E0EC6
:100950003A5CD8B0AEEF04F0B0EF04F0B3EF04F0BF
:10096000070E24EF07F048C03EF049C03FF0010EEB
:10097000386E46503E5C47503F58D8B0C2EF04F046
:10098000C4EF04F0CAEF04F046C03EF047C03FF0A9
:10099000020E386E44503E5C45503F58D8B0D3EFFD
:1009A00004F0D5EF04F0DBEF04F044C03EF045C0A6
:1009B0003FF0030E386E396A330E136E330E146E29
:1009C000330E156E3F0E166E3EC001F03FC002F0B2
:1009D000036A046A000E38EC09F001C00FF002C08F
:1009E00010F003C011F004C012F025EC07F00FC0A6
:1009F00028F010C029F011C02AF012C02BF048C016
:100A000001F049C002F0036A046A000E38EC09F0F4
:100A100001C02CF002C02DF003C02EF004C02FF056
:100A200096EC0AF0D8B017EF05F019EF05F01AEFC1
:100A300005F0392A330E136E330E146E330E156E15
:100A40003F0E166E3EC001F03FC002F0036A046A1A
:100A5000000E38EC09F001C00FF002C010F003C026
:100A600011F004C012F025EC07F00FC028F010C000
:100A700029F011C02AF012C02BF046C001F047C087
:100A800002F0036A046A000E38EC09F001C02CF091
:100A900002C02DF003C02EF004C02FF096EC0AF037
:100AA000D8B055EF05F057EF05F058EF05F0392AAB
:100AB000330E136E330E146E330E156E3F0E166E1C
:100AC0003EC001F03FC002F0036A046A000E38EC39
:100AD00009F001C00FF002C010F003C011F004C013
:100AE00012F025EC07F00FC028F010C029F011C05B
:100AF0002AF012C02BF044C001F045C002F0036A96
:100B0000046A000E38EC09F001C02CF002C02DF090
:100B100003C02EF004C02FF096EC0AF0D8B093EF8B
:100B200005F095EF05F096EF05F0392A010E3964CE
:100B30009CEF05F09EEF05F015EF07F0330E136EF6
:100B4000330E146E330E156E3F0E166E3EC001F05E
:100B50003FC002F0036A046A000E38EC09F001C0DD
:100B60000FF002C010F003C011F004C012F025EC29
:100B700007F00FC028F010C029F011C02AF012C0F1
:100B80002BF048C001F049C002F0036A046A000E6D
:100B900038EC09F001C02CF002C02DF003C02EF09B
:100BA00004C02FF096EC0AF0D8B0D9EF05F0DBEFD7
:100BB00005F01BEF06F0330E136E330E146E330E7A
:100BC000156E3F0E166E3EC001F03FC002F0036A84
:100BD000046A000E38EC09F001C00FF002C010F0FA
:100BE00003C011F004C012F025EC07F00FC028F08C
:100BF00010C029F011C02AF012C02BF046C001F03D
:100C000047C002F0036A046A000E38EC09F001C024
:100C10002CF002C02DF003C02EF004C02FF096EC93
:100C20000AF0D8B016EF06F018EF06F01BEF06F04A
:100C3000040E24EF07F0330E136E330E146E330ED2
:100C4000156E3F0E166E3EC001F03FC002F0036A03
:100C5000046A000E38EC09F001C00FF002C010F079
:100C600003C011F004C012F025EC07F00FC028F00B
:100C700010C029F011C02AF012C02BF046C001F0BC
:100C800047C002F0036A046A000E38EC09F001C0A4
:100C90002CF002C02DF003C02EF004C02FF096EC13
:100CA0000AF0D8B056EF06F058EF06F098EF06F0CD
:100CB000330E136E330E146E330E156E3F0E166E1A
:100CC0003EC001F03FC002F0036A046A000E38EC37
:100CD00009F001C00FF002C010F003C011F004C011
:100CE00012F025EC07F00FC028F010C029F011C059
:100CF0002AF012C02BF044C001F045C002F0036A94
:100D0000046A000E38EC09F001C02CF002C02DF08E
:100D100003C02EF004C02FF096EC0AF0D8B093EF89
:100D200006F095EF06F098EF06F0050E24EF07F0B9
:100D3000330E136E330E146E330E156E3F0E166E99
:100D40003EC001F03FC002F0036A046A000E38ECB6
:100D500009F001C00FF002C010F003C011F004C090
:100D600012F025EC07F00FC028F010C029F011C0D8
:100D70002AF012C02BF048C001F049C002F0036A0B
:100D8000046A000E38EC09F001C02CF002C02DF00E
:100D900003C02EF004C02FF096EC0AF0D8B0D3EFC9
:100DA00006F0D5EF06F015EF07F0330E136E330E95
:100DB000146E330E156E3F0E166E3EC001F03FC02E
:100DC00002F0036A046A000E38EC09F001C00FF06B
:100DD00002C010F003C011F004C012F025EC07F0BF
:100DE0000FC028F010C029F011C02AF012C02BF05B
:100DF00044C001F045C002F0036A046A000E38ECFA
:100E000009F001C02CF002C02DF003C02EF004C088
:100E10002FF096EC0AF0D8B010EF07F012EF07F0C1
:100E200015EF07F0060E24EF07F03F5009E1330EEF
:100E30003E5CD8A01EEF07F020EF07F023EF07F08D
:100E4000385024EF07F0000E12001250800B1B6E7A
:100E500012501224216E11AE30EF07F032EF07F07E
:100E600033EF07F021802150D8B439EF07F03BEF82
:100E700007F04EEF07F02128D8A441EF07F043EF29
:100E800007F04BEF07F0000E0F6E000E106E000E15
:100E9000116E000E126E118E56EF07F0000E0F6EDF
:100EA000000E106E000E116E000E126E1650800BAA
:100EB0001B1A16501624206E15AE61EF07F063EF73
:100EC00007F064EF07F020802050D8B46AEF07F0F5
:100ED0006CEF07F07FEF07F02028D8A472EF07F03F
:100EE00074EF07F07CEF07F0000E136E000E146E27
:100EF000000E156E000E166E158E87EF07F0000EB1
:100F0000136E000E146E000E156E000E166E20503D
:100F1000D8B48DEF07F08FEF07F097EF07F021506F
:100F2000D8A495EF07F097EF07F0A1EF07F0000EB8
:100F30000F6E000E106E000E116E000E126E37EF67
:100F400009F015500F02F3CF26F0F4CF27F026500A
:100F50001C6E1D6A1E6A1F6A2750226E236A246A4D
:100F6000256A14501002F3CF26F0F4CF27F0265054
:100F70001C26000E1D221E221F2227502226000E94
:100F800023222422252213501102F3CF26F0F4CF7E
:100F900027F026501C26000E1D221E221F2227503D
:100FA0002226000E2322242225221EC01FF01DC04F
:100FB0001EF01CC01DF01C6A13501002F3CF26F067
:100FC000F4CF27F026501C2627501D22000E1E228B
:100FD000000E1F2214500F02F3CF26F0F4CF27F09B
:100FE00026501C2627501D22000E1E22000E1F22F6
:100FF0001EC01FF01DC01EF01CC01DF01C6A135047
:101000000F02F3CF26F0F4CF27F026501C262750EE
:101010001D22000E1E22000E1F2215501002F3CFBB
:1010200026F0F4CF27F02650222627502322000E48
:101030002422000E252214501102F3CF26F0F4CF03
:1010400027F02650222627502322000E2422000EAD
:10105000252215501102F3CF26F0F4CF27F02650A9
:10106000176E2750186E196A1A6A19C01AF018C03C
:1010700019F017C018F0176A1750222618502322AB
:10108000195024221A5025221CC017F01DC018F038
:101090001EC019F01FC01AF0190E54EF08F0D890B6
:1010A0001A32193218321732E82E4FEF08F0175063
:1010B000222618502322195024221A5025221EC0FD
:1010C0001FF01DC01EF01CC01DF01C6A205021C066
:1010D00017F0186A1726000E1822820E1724266EA3
:1010E000FF0E1820276E8AEF08F0D890223623369C
:1010F000243625361FAE7FEF08F081EF08F082EF2F
:1011000008F02280D8901C361D361E361F36260663
:10111000D8A0270624AE8FEF08F091EF08F075EF06
:1011200008F0206A1FAE97EF08F099EF08F0BDEFC6
:1011300008F0FF0E1C14176EFF0E1D14186EFF0E24
:101140001E14196E7F0E1F141A6E175018101910E6
:101150001A10D8B4AEEF08F0B0EF08F0B4EF08F012
:10116000010E206EBDEF08F022A0B9EF08F0BBEF32
:1011700008F0BDEF08F0B0EF08F02050D8B4C3EF8E
:1011800008F0C5EF08F0E9EF08F0010E2226000E86
:1011900023222422252225A0D0EF08F0D2EF08F048
:1011A000E9EF08F022C017F023C018F024C019F0AE
:1011B00025C01AF01A341A3219321832173217C0F1
:1011C00022F018C023F019C024F01AC025F0264AD6
:1011D000272A27BEF4EF08F0275008E12628D8A0D8
:1011E000F4EF08F0F6EF08F000EF09F0000E226EC1
:1011F000000E236E800E246E7F0E256E2DEF09F0FB
:1012000027BE0DEF09F0275006E12604D8B00BEFFA
:1012100009F00DEF09F018EF09F0000E226E000E34
:10122000236E000E246E000E256E1B6A2DEF09F052
:1012300026C021F0FF0E2216FF0E23167F0E241665
:10124000000E251621A027EF09F029EF09F02AEF5B
:1012500009F0248ED8902130256E1B50251222C013
:101260000FF023C010F024C011F025C012F01200BE
:10127000096E0950D8B43FEF09F041EF09F063EF70
:1012800009F004BE48EF09F046EF09F063EF09F0FA
:1012900001C005F002C006F003C007F004C008F06A
:1012A000051E061E071E081E052A000E062207221E
:1012B000082205C00BF006C00CF007C00DF008C0F6
:1012C0000EF06BEF09F001C00BF002C00CF003C090
:1012D0000DF004C00EF00150021003100410D8A449
:1012E00074EF09F076EF09F080EF09F0000E016E5F
:1012F000000E026E000E036E000E046E11EF0AF077
:10130000960E0A6E8AEF09F00A2AD8900E320D3234
:101310000C320B32000E0B14056E000E0C14066E10
:10132000000E0D14076EFE0E0E14086E055006100A
:1013300007100810D8A49FEF09F0A1EF09F084EF7F
:1013400009F0AFEF09F00A2A010E0B26000E0C225D
:101350000D220E22D8900E320D320C320B32000EBE
:101360000B14056E000E0C14066E000E0D14076EA5
:10137000FF0E0E14086E0550061007100810D8A4B2
:10138000C4EF09F0C6EF09F0A3EF09F0CEEF09F0C2
:101390000A06D8900B360C360D360E360DBED3EF3E
:1013A00009F0D5EF09F0DDEF09F0020E0A60DBEF7E
:1013B00009F0DDEF09F0C8EF09F00AB0E2EF09F03B
:1013C000E4EF09F0E5EF09F00D9ED8900A320AC06B
:1013D00005F0066A076A086A05C008F0076A066A27
:1013E000056A05500B1206500C1207500D120850DA
:1013F0000E120950D8B4FFEF09F001EF0AF009EF1F
:101400000AF004BE08EF0AF006EF0AF009EF0AF04E
:101410000E8E0BC001F00CC002F00DC003F00EC028
:1014200004F01200FCEC0CF0000E026E320E016EA5
:101430007FEC0CF00A0E0E6E000E73EC0BF00EC07B
:1014400042F00FC043F08B80000E026E320E016E30
:101450007FEC0CF00A0E0E6E000E73EC0BF00EC05B
:1014600048F00FC049F08B908B82000E026E320E56
:10147000016E7FEC0CF00A0E0E6E000E73EC0BF09A
:101480000EC046F00FC047F08B928B84000E026EA8
:10149000320E016E7FEC0CF00A0E0E6E000E73EC35
:1014A0000BF00EC044F00FC045F08B944850425CE6
:1014B00049504358D8B05FEF0AF061EF0AF067EF88
:1014C0000AF04250485E4350495A6BEF0AF0000E52
:1014D000496E000E486E4650425C47504358D8B0A3
:1014E00074EF0AF076EF0AF07CEF0AF04250465EA5
:1014F0004350475A80EF0AF0000E476E000E466ECA
:101500004450425C45504358D8B089EF0AF08BEF05
:101510000AF091EF0AF04250445E4350455A95EF6D
:101520000AF0000E456E000E446E1200000E2814E4
:10153000306E000E2914316E800E2A14326E7F0E2A
:101540002B14336E3050311032103310D8A4ABEF5F
:101550000AF0ADEF0AF0B5EF0AF0000E286E000EAB
:10156000296E000E2A6E000E2B6E000E2C14306EAB
:10157000000E2D14316E800E2E14326E7F0E2F143D
:10158000336E3050311032103310D8A4CAEF0AF045
:10159000CCEF0AF0D4EF0AF0000E2C6E000E2D6E88
:1015A000000E2E6E000E2F6E2BAED9EF0AF0DBEF81
:1015B0000AF0E4EF0AF0286C291ED8B0292A2A1E66
:1015C000D8B02A2A800E2B562FAEE9EF0AF0EBEFA7
:1015D0000AF0F4EF0AF02C6C2D1ED8B02D2A2E1E26
:1015E000D8B02E2A800E2F56000E281A000E291A67
:1015F000000E2A1A800E2B1A000E2C1A000E2D1A1D
:10160000000E2E1A800E2F1A2C50285C2D502958AF
:101610002E502A582F502B58D8B011EF0BF013EF43
:101620000BF016EF0BF0D89017EF0BF0D8801200EC
:10163000086EFCEC0CF045EF0BF08A8072EF0BF0BB
:101640008A8272EF0BF08A8472EF0BF08A8672EF57
:101650000BF08A8872EF0BF08A8A72EF0BF08A8C9B
:1016600072EF0BF08A8E72EF0BF08A68010E026E39
:10167000F40E016E7FEC0CF08A6A010E026EF40E1D
:10168000016E7FEC0CF072EF0BF00850066E076AEB
:101690000750000AD8B44FEF0BF035EF0BF00650AF
:1016A000010AD8B41DEF0BF0030AD8B420EF0BF0F9
:1016B000010AD8B423EF0BF0070AD8B426EF0BF0D9
:1016C000010AD8B429EF0BF0030AD8B42CEF0BF0C1
:1016D000010AD8B42FEF0BF00F0AD8B432EF0BF099
:1016E00035EF0BF01200166E000E176E000E186E1E
:1016F000000E196E000E1A6E16C010F0104610463D
:10170000C2501018830B1018C26E1B6AAFEF0BF09B
:101710001A0EE82EFED700D0C282C2B292EF0BF0B2
:1017200094EF0BF08DEF0BF0C450116E106AC350A4
:101730001024126E000E1120136E146A13BE1406CC
:101740001450156E125017261350182214501922D7
:1017500015501A22850EE82EFED700001B2A0E50C7
:101760001B5CD8A0B6EF0BF0B8EF0BF088EF0BF0D6
:1017700017C001F018C002F019C003F01AC004F03D
:101780000E50056E066A076A086ACCEC0BF001C0C1
:101790000EF002C00FF01200000E096E000E0A6E6D
:1017A000000E0B6E000E0C6E055006100710081090
:1017B000D8B4DDEF0BF0DFEF0BF015EF0CF0010EFE
:1017C0000D6EE9EF0BF0D890053606360736083671
:1017D0000D2A08AEEEEF0BF0F0EF0BF0E3EF0BF09D
:1017E000D89009360A360B360C360550015C065087
:1017F00002580750035808500458D8A002EF0CF0C4
:1018000004EF0CF00DEF0CF00550015E0650025A8B
:101810000750035A0850045A0980D89008320732FA
:10182000063205320D2EF0EF0BF009C001F00AC0B0
:1018300002F00BC003F00CC004F01200000E076EA3
:10184000000E066E8A80000E026EC80E016E7FECDE
:101850000CF08A908A82000E026EC80E016E7FEC38
:101860000CF08A928A84000E026EC80E016E7FEC24
:101870000CF08A94064A072A07BE48EF0CF007507E
:1018800009E1020E065CD8A048EF0CF04AEF0CF01C
:1018900022EF0CF08A848A828A80010E026EF40E96
:1018A000016E7FEC0CF0FCEC0CF0030E026EE80E07
:1018B000016E7FEC0CF01200E4EC0CF00F015C6B9D
:1018C000936A8A6A93908A800B0E416E260E406E50
:1018D0005E0EE82EFED7402EFCD7412EFAD78A9016
:1018E0000B0E416E260E406E5E0EE82EFED7402E89
:1018F000FCD7412EFAD763EF0CF0FEEF3FF0000E5D
:10190000056E000E046E8FEF0CF0060E036E300EA7
:10191000E82EFED7032EFCD700D0044A052A01503A
:10192000045C02500558D8A098EF0CF09AEF0CF028
:1019300085EF0CF01200896A8A6A8B6A8C6A8D6A5C
:101940009268936AF70E946E9568870E966E2F0EC6
:101950000F015B6F5C6BC40E5D6F5E69070E5F6F9E
:10196000856A866A876AF2861200D09EF292F18CAE
:10197000000E016E000E026E0BEC0DF0F090F18A7D
:10198000000E016E000E026E06EC0DF0F092F18872
:10199000000E016E000E026E01EC0DF0120000EE62
:1019A00042F0090EEE6AE806FDE1000EF86E000155
:1019B0005CEF0CF0949094929494939093929394FF
:1019C0009280FCEC0CF01200F6EC0CF09BEC0CF0AE
:1019D000EDEC0CF0B5EC0CF01200C16AAA0EC06E72
:1019E000C36AC46A030EC26E9E9C1200700ED36E50
:1019F000D26A9B6AB56A12008B908B928B948A6A2A
:101A0000120001C04BF002C04CF0120001C04DF0BA
:101A100002C04EF0120001C04FF002C050F01200A0
:047FFC00CFEF0CF0C7
:020000040030CA
:0E00000000285F3CFFD385FF0FC00FE00F40CC
:00000001FF
